:02000004080AE8
:1000000000000A0814110A08000006000600050195
:080010000402DB070000000000
:04001800140F0A08AF
:10001C0009480A4908B5884205D0094A824202D0EB
:10002C00121A00F02FFF0748074A0021121A00F09D
:10003C0037FF064808BD00BF0000002084100A08E6
:10004C0068000020680000205C0500205C05002092
:10005C0070B500F0FDFD0025054E064CA41BA40850
:10006C00A54200D170BD56F8043B98470135F7E71F
:10007C0050100A0874100A0800F013B808B500F004
:10008C0011F8BDE8084000F0A5BD00F0F5B900F08E
:10009C00FBB90078B0FA80F0400970470123037077
:1000AC007047704770470000022310B5064C1A4683
:1000BC000C21204600F050F82046BDE81040034AC1
:1000CC00034900F0C7BE00BF6C0000206800002090
:1000DC00E1000A0810B50446C06808B100F0D4F974
:1000EC0023781BB10021E07900F032FE204610BDD0
:1000FC0038B50446C0680D4608B100F0C5F9A379BF
:10010C00062B0CBF04200320684380B2A08000F0B3
:10011C00B3F9E06028B10021A28800F0C1FE65802F
:10012C0038BDA0806080FBE738B5037805460C46E7
:10013C001BB10021C07900F00BFE2B78EC7153B190
:10014C00A4B22046012100F003FE2046BDE8384051
:10015C00002100F00EBE38BD70B5002504461646D1
:10016C008371C0E9035505700572FFF7C1FF204686
:10017C003146FFF7D9FF204670BD000008B500F0EE
:10018C0025F8014B186008BD8000002008B5024B13
:10019C001B685B6C019308BDD001060808B5024BC7
:1001AC001B689B6C019308BDD001060808B5024B77
:1001BC001B685B68019308BD9C01060808B5024BDF
:1001CC001B685B69019308BD9C01060808B5024BCE
:1001DC001B681B68019308BDB001060808B5024BEB
:1001EC001B689B68019308BDB001060808B5024B5B
:1001FC001B68DB68019308BDB001060808B5024B0B
:10020C001B681B69019308BDB001060808B5024BB9
:10021C001B681B6E019308BDAC01060808B5024BA8
:10022C001B685B6E019308BDAC01060808B5024B58
:10023C001B689B6E019308BDAC01060808B5024B08
:10024C001B68DB6E019308BDAC01060808B5024BB8
:10025C001B681B6F019308BDAC01060808B5024B67
:10026C001B685B6F019308BDAC01060808B5034B16
:10027C001B68D3F88030019308BD0000AC01060860
:10028C0008B5024B1B68DB69019308BDB401060875
:10029C0008B5024B1B681B6A019308BDB401060824
:1002AC0008B5024B1B689B69019308BDC401060885
:1002BC0008B5024B1B685B6A019308BDC4010608B4
:1002CC0008B5024B1B689B6A019308BDC401060864
:1002DC0008B5024B1B68DB6A019308BDC401060814
:1002EC0008B5024B1B681B6B019308BDC4010608C3
:1002FC0008B5024B1B685B6B019308BDC401060873
:10030C0008B5024B1B689B6B019308BDC401060822
:10031C0008B5024B1B681B6C019308BDC401060891
:10032C0008B5024B1B681B68019308BDD801060871
:10033C0008B5024B1B681B69019308BDD801060860
:10034C0008B5024B1B685B69019308BDD801060810
:10035C0008B5024B1B689B69019308BDD8010608C0
:10036C0008B5024B1B68DB69019308BDD801060870
:10037C0008B5024B1B681B6A019308BDD80106081F
:10038C0008B5024B1B689B6C019308BDC0010608A5
:10039C0008B5024B1B685B68019308BDA4010608F5
:1003AC0008B5034B1B68D3F89030019308BD0000CF
:1003BC00A401060808B5034B1B68D3F89C300193C5
:1003CC0008BD0000A401060808B5024B1B68DB6BD6
:1003DC00019308BDCC01060808B5024B1B685B688D
:1003EC00019308BDC801060808B5024B1B689B6841
:1003FC00019308BDC801060808B5024B1B68DB68F1
:10040C00019308BDC801060808B5024B1B681B699F
:10041C00019308BDC801060808B5024B1B685B694F
:10042C00019308BDC801060808B5024B1B689B69FF
:10043C00019308BDC801060808B5024B1B68DB69AF
:10044C00019308BDC801060808B5024B1B681B6A5E
:10045C00019308BDC801060808B5024B1B681B6B4D
:10046C00019308BDC801060808B5024B1B685B6BFD
:10047C00019308BDC801060808B5024B1B681B6830
:10048C00019308BDA001060808B5024B1B685B6808
:10049C00019308BDA001060808B5024B1B685B6CF4
:1004AC00019308BDA001060810B58368044613B17A
:1004BC00032201469847204610BD7047F8B5064602
:1004CC0015460C468F18BC4206D0336830469B68E4
:1004DC0014F8011B9847F6E72846F8BD0022007C6B
:1004EC00FFF794BE0021007CFFF798BE0021007C32
:1004FC00FFF79CBE0021007CFFF7A0BE0021007C12
:10050C00FFF7A4BE10B50446142100F0A8FC204649
:10051C0010BD000010B54FF47A7304460846002154
:10052C00C4E90113034B114623602074FFF79EFEB0
:10053C00204610BD300F0A08704710B5044618212C
:10054C0000F08DFC204610BDF8B50E46002400F1DD
:10055C000807051D17F8011D0A22304600F0E7F8C0
:10056C00AF42044401D12046F8BD002CF2D02E211C
:10057C00304600F0D9F80444ECE7000010B504460E
:10058C00044B1122002140F8043B00F089FC20466A
:10059C0010BD00BF580F0A080346074A10B543F8B0
:1005AC00042B01F1100251F8044B914243F8044B17
:1005BC00F9D10A781A7010BD580F0A08024AC0E91E
:1005CC000021042202757047580F0A0810B59DF8D7
:1005DC00084044EA0324042344EA024444EA016444
:1005EC004460037510BD000037B5044D05609DF8DF
:1005FC0018500095FFF7EAFF03B030BD580F0A08FA
:10060C00014B024A1A60704784000020640F0A08EC
:10061C00002340681A46FFF7DFBE00220221406823
:10062C00FFF7EABE002240681146FFF7DDBE00224C
:10063C0040681146FFF7E8BE002340681A46194689
:10064C00FFF7EABE002340681A461946FFF7ECBED6
:10065C000022406881F00101FFF7EEBE00224068E5
:10066C00FFF7FABE002240681146FFF7FDBE0022DC
:10067C0040681146FFF7E8BE70B515468EB00446CB
:10068C0008A8FFF77BFF1122002103A800F008FC4B
:10069C000026284600F030FC0A4B009681B25B68BD
:1006AC00284603AAFFF76CFE30B131462046FFF70F
:1006BC0085FF20460EB070BD204603A9FFF76CFFE6
:1006CC00F7E700BF08050020024B034A1A6000221E
:1006DC005A60704788000020700F0A08F8B506466B
:1006EC000D4600248F18BD420CD0336830469B68F1
:1006FC0015F8011B9847031E01DB1C44F3E7002C83
:10070C0008BF1C462046F8BD70B505460C46084689
:10071C0049B100F0F1FB2B68024621462846BDE8A2
:10072C007040DB68184770BD03689B68184700234E
:10073C00012A98BF0A2230B58BB00C468DF82430B4
:10074C0009A92546B4FBF2F404FB1253DBB2092BC6
:10075C0094BF30333733DBB2AA4201F8013DF0D9F4
:10076C00FFF7D2FF0BB030BD10B50446FFF79CFE6F
:10077C00204610BD00230348034A0449836000F05F
:10078C0069BB00BF900000206800002075070A08B4
:10079C0070B5002604460D4640F8086FFFF7F6FCCE
:1007AC0028462570FFF76CFD2046666070BD10B5BD
:1007BC000446006818B1FFF767FE0023236010BDE4
:1007CC0010B50446FFF7F3FF204610BD02220020AF
:1007DC0010B5084B084C1A60084B2060A080A07123
:1007EC00A360FFF7D5FD2046BDE81040044A05493B
:1007FC0000F030BBAC000020A00000200000FFFF88
:10080C0068000020CD070A08024B1A68024B1A60D8
:10081C00704700BF00000020B000002070474174FA
:10082C00704708B5007CFFF773FD20EAE07008BD47
:10083C0008B5007CFFF744FD20EAE07008BD08B560
:10084C00007CFFF74DFD40EAE07008BD08B5007C68
:10085C00FFF73EFD40EAE07008BD007CFFF748BDA5
:10086C0070B5467C04460D462EB12946207CBDE869
:10087C007040FFF71DBD007CFFF74AFD0028F4DC3B
:10088C00304670BD10B50446142100F0E8FA20463D
:10089C0010BD00004FF0000C10B504460846114680
:1008AC004FF47A72C4E901C2044A20742260012216
:1008BC0062741A46FFF7F4FC204610BDC00F0A08FC
:1008CC0038B50D4D2978BFF35B8F11F0010411D1B0
:1008DC002846FFF7DEFB68B12146084A084B094859
:1008EC00FFF7D8FF2846FFF7D9FB074A0749054809
:1008FC0000F0B0FA034838BDB4000020B800002066
:10090C003C010020C00100206800002029080A08D2
:10091C0041747047704708B50021007CFFF718FD43
:10092C0040EAE07008BD08B50121007CFFF710FD1E
:10093C0040EAE07008BD08B5007CFFF701FD20EA35
:10094C00E07008BD08B5007CFFF7F2FC20EAE0700F
:10095C0008BD38B50446007C0D46FFF7F1FC0028B5
:10096C0001DC607C28B12946207CFFF7F9FC20EAE9
:10097C00E07038BD007CFFF7FBBC10B504461421B9
:10098C0000F06DFA204610BD10B54FF47A73044692
:10099C0008460021C4E90113044B20742360012391
:1009AC0011466374FFF7BCFC204610BDF00F0A081B
:1009BC0010B504461422002100F072FA054B2046B3
:1009CC006360054BE36040F2011323818123238292
:1009DC0010BD00BF040200200503002030B50F4DF0
:1009EC0087B001A8FFF7E4FF2978BFF35B8F11F004
:1009FC00010410D12846FFF74CFB60B1214601AA37
:100A0C000748FFF7C1FF2846FFF748FB054A064990
:100A1C00034800F01FFA024807B030BDD401002093
:100A2C00DC0100206800002021090A0810B50446EA
:100A3C001422002100F034FA054B20466360054B6C
:100A4C00E36040F2011323818123238210BD00BF98
:100A5C00860300208704002010B50F4C86B001A837
:100A6C00FFF7E4FF2378BFF35B8FDB0710D420463E
:100A7C00FFF70FFB60B1012101AA0848FFF784FFC3
:100A8C002046FFF70BFB064A0649044800F0E2F942
:100A9C00024806B010BD00BFD8010020F0010020B4
:100AAC006800002021090A08002240681146FFF75F
:100ABC00ABBCF0B5154689B011220E460446002198
:100ACC0003A800F0EDF9284600F016FA002781B2D1
:100ADC0073682846009703AAFFF752FC30B13946D9
:100AEC002046FFF76BFD204609B0F0BD204603A958
:100AFC00FFF752FDF7E7002240681146FFF7A4BC50
:100B0C00002240681146FFF7AFBC00224068FFF797
:100B1C00A3BC0022406881F00101FFF78DBC0023CB
:100B2C0040681A461946FFF77FBC002340681A46F6
:100B3C001946FFF771BC002240681146FFF754BC00
:100B4C00002202214068FFF757BC002340681A4678
:100B5C00FFF742BC0422024B5A60024A1A607047EB
:100B6C000805002020100A08014B1860704700BFD0
:100B7C000400002008B5134B43B1FFF72FFF0368A7
:100B8C001B699847002801DDAFF300800E4B43B181
:100B9C00FFF796FE03681B699847002801DDAFF349
:100BAC0000800A4B0BB1AFF30080094B43B1FFF748
:100BBC0053FF03681B699847002801DDAFF30080E1
:100BCC0008BD00BF00000000000000000000000095
:100BDC000000000008B5FFF7CDFFFFF7EFFA014B5F
:100BEC00186008BD280500200248034A0349121A60
:100BFC0000F048B9004002400440024080100A084E
:100C0C00002307B51A466FF077010093FFF7D2FB6C
:100C1C0003B05DF804FB000007B543880A2B08D02D
:100C2C00502B0BD1094B1B684BB103B05DF804EB97
:100C3C001847FFF7E5FF03B05DF804FB00231A46E5
:100C4C006FF077010093FFF7B5FBF4E71405002074
:100C5C0038B5124C00211248FFF71EFC114D2368C9
:100C6C00AB420CBF012200220F4B1A7002D0FFF7CF
:100C7C00BBFF2560FFF79AFA044600F019F90B4BFD
:100C8C0013B12046AFF3008000210848FFF79CFB0E
:100C9C00BDE8384000210648FFF782BB0040024007
:100CAC00750B0A081E1C279A100500200000000076
:100CBC00250C0A0810B50446806808B1FFF76EFAD7
:100CCC00204610BD172870B5044601D9002070BD10
:100CDC00A0F10D03022B0BD9012826D800F07AF8CD
:100CEC000021007CFFF7BAFA80F00100C0B2EEE7F9
:100CFC00134E3178BFF35B8F11F001050FD13046E5
:100D0C00FFF7C7F958B129460E48FFF741FD3046A9
:100D1C00FFF7C4F90C4A0D490A4800F09BF8094B3F
:100D2C001878FFF7B5FA0028D0D1123C012C05D861
:100D3C00FFF7C6FD007CFFF7E3FAD5E70120C6E715
:100D4C00180500201C05002068000020C10C0A08B2
:100D5C00172838B504460D460AD8FF2908D0FFF7E6
:100D6C00B1FF28B129462046BDE83840FFF736BA16
:100D7C0038BD38B504460D46FFF738FAFF2810D0B9
:100D8C00062804D84D2323FA00F0C30709D42046C3
:100D9C00FFF798FF28B129462046BDE83840FFF7F9
:100DAC002DBA38BD002370B5202543801423084E7E
:100DBC0004460380314685600561284600F051F8F1
:100DCC0031466060284600F04CF8E060204670BD6B
:100DDC004C100A0830B50F4D87B02978BFF35B8FE4
:100DEC0011F0010413D12846FFF753F978B101A88B
:100DFC00FFF7D8FF214601AA0748FFF78BFB2846CF
:100E0C00FFF74CF9054A0649034800F023F802485D
:100E1C0007B030BD2C0500203005002068000020F4
:100E2C00C7040A08002313B5074C1A461946204676
:100E3C000093FFF7D9FB2046044A054902B0BDE8F0
:100E4C00104000F007B800BF4405002068000020E7
:100E5C0045050A080B460146184600F005B8FFF791
:100E6C0016B9FFF712B9000010B504460448134632
:100E7C0020B10A4602202146AFF3008010BD00BF0E
:100E8C00000000000A44914200F1FF3300D170478A
:100E9C0010B511F8014B914203F8014FF9D110BD77
:100EAC0003460244934200D1704703F8011BF9E753
:100EBC0038B50D4B04461D68AB6B7BB91820FFF79A
:100ECC00DBFA0A4A0A4BA863C0E90023094B01224A
:100EDC0083600B2383810023C0E904230022AB6BC6
:100EEC001C615A6138BD00BF040000200E33CDAB2D
:100EFC0034126DE6ECDE0500034613F8012B002AD4
:100F0C00FBD1181A013870471D000A085D000A0849
:100F1C0085000A0889000A08000000000000000093
:100F2C0000000000C7040A0811050A08E9040A08B1
:100F3C00C9040A08F1040A08F9040A0801050A0898
:100F4C0009050A08000000000000000055050A0809
:100F5C0045050A0847050A0861707000000000008A
:100F6C00000000001D060A0827060A0831060A08B8
:100F7C003B060A0845060A0851060A085D060A08D7
:100F8C0069060A0871060A087B060A0885060A081B
:100F9C0025592D256D2D25645425483A254D3A2586
:100FAC0053257A0061736374696D6500000000005D
:100FBC000000000029080A0891080A086D080A08B0
:100FCC00E9060A083D080A0859080A084B080A08E5
:100FDC0067080A082B080A082F080A0800000000F6
:100FEC000000000021090A0887090A085F090A089D
:100FFC00E9060A0851090A0823090A0833090A08EC
:10100C0081090A0843090A081D090A0800000000A2
:10101C0000000000570B0A084D0B0A08430B0A0886
:10102C00B50A0A08370B0A082B0B0A081F0B0A080B
:10103C00170B0A080D0B0A08030B0A08BF0A0A084B
:10104C0000000000B5000A0889010A080D060A080C
:10105C00D5060A0881070A08D9070A0815080A08DC
:10106C00610B0A08310E0A080000000000000000A5
:04107C000000000070
:04108000000000006C
:10108400B00F0A0808000020000000000000000063
:10109400000000000000000000000000000000004C
:1010A400000000000000000000000000000000003C
:1010B400000000000000000000000000000000002C
:1010C400000000000000000000000000000000001C
:1010D400000000000000000000000000000000000C
:0810E400000000000000000004
:1010EC00FFFFFFFF00000102030405060708090AC1
:1010FC000B0C0D0E0F101112131415161718191ABC
:08110C001B1C1D1E1F20280002
:0411140078563412C3
:04000005080A001CC9
:00000001FF
