:02000002D0002C
:1040000000400D00245A0D00000006000C000501C0
:084010000401DB0700000000C1
:04401800AC570D0094
:10401C0009480A49884208B505D0094A824202D0AB
:10402C00121A01F07BFB0748074A0021121A01F013
:10403C0083FB014808BD00BF94E5032084590D00A3
:10404C000CE603200CE60320F0E7032070B5074EC6
:10405C00074C01F059FAA41BA4080025A54200D175
:10406C0070BD56F8043B98470135F7E758590D00D9
:10407C0080590D0000F02AB808B500F06FF9BDE8C2
:10408C00084001F003BA00F0EBBD00F0F1BD007880
:10409C00B0FA80F04009704701230370704710B5E7
:1040AC000446006808B100F0E3FD204610BD0EB4D4
:1040BC0003B503AB002153F8042B019301F00DF869
:1040CC0002B05DF804EB03B07047000008B50B4B71
:1040DC000021188801F088FA094800F0D4F9084842
:1040EC0000F00AFA064800F001FC0548142100F023
:1040FC00D7FB00F031FC034B186008BDA0E5032092
:10410C0024E603201CE6032073B5134C134D002347
:10411C002370FF2621780C290CD8FF231A46284639
:10412C00009600F08FFB284600F0E6F92378013367
:10413C002370EFE70A4B186800F0B2FD074800F057
:10414C00D5FB064800F0D8F9064B186802B0BDE85C
:10415C00704000F0A5BD00BF21E6032024E603203B
:10416C0094E503209CE5032073B5134C134D0023F9
:10417C002370FF2621780C290CD8FF231A462846D9
:10418C00009600F05FFB284600F0B6F92378013367
:10419C002370EFE70A4B186800F082FD074800F027
:1041AC00A5FB064800F0A8F9064B186802B0BDE85C
:1041BC00704000F075BD00BF21E6032024E603200B
:1041CC0098E503209CE5032070B5FFF7CDFFFFF7C2
:1041DC009BFFFFF7C9FF4FF4967000F061FD5B4C3D
:1041EC005B4D5C4EFFF790FFFFF7BEFFFFF78CFFB8
:1041FC00FFF7BAFFFFF788FF4FF4967000F050FD01
:10420C000023237001F0B8F823783146EA5CFFF7FD
:10421C004EFF2378EB5C1BBBFFF776FFFFF774FFB9
:10422C00FFF772FFFFF770FFFFF76EFF4FF496700A
:10423C0000F036FD23780133DBB2032B2370E1D978
:10424C00FFF792FFFFF760FFFFF78EFFFFF75CFFB2
:10425C00FFF78AFF01F090F83F49FFF728FF70BD88
:10426C00012B0AD1FFF780FFFFF74EFFFFF74CFF42
:10427C00FFF74AFFFFF748FFD8E7022B0AD1FFF7F9
:10428C0073FFFFF771FFFFF73FFFFFF73DFFFFF7EE
:10429C003BFFCBE7032B0AD1FFF766FFFFF764FF69
:1042AC00FFF762FFFFF730FFFFF72EFFBEE7042B8F
:1042BC000AD1FFF759FFFFF757FFFFF755FFFFF73D
:1042CC0053FFFFF721FFB1E7052B0AD1FFF74CFF96
:1042DC00FFF74AFFFFF748FFFFF746FFFFF744FFE2
:1042EC00A4E7062B0AD1FFF70FFFFFF73DFFFFF7FF
:1042FC003BFFFFF739FFFFF737FF97E7072B0AD193
:10430C00FFF702FFFFF700FFFFF72EFFFFF72CFF71
:10431C00FFF72AFF8AE7082B0AD1FFF7F5FEFFF714
:10432C00F3FEFFF7F1FEFFF71FFFFFF71DFF7DE721
:10433C00092B7FF47BAFFFF7E7FEFFF7E5FEFFF7F6
:10434C00E3FEFFF7E1FEFFF70FFF6FE720E6032028
:10435C0038E60320C0570D00D5570D0010B5174C8B
:10436C0000F0FAFA2368C01A42F21073984224D96A
:10437C00134B188801F062F9124A134B1349186059
:10438C004FF47A7390FBF3F31370DBB201FB030071
:10439C006FF06301642390FBF3F35370DBB201FB0A
:1043AC0003000A2190FBF1F301FB13009370D07012
:1043BC00FFF70AFF00F0D0FA206010BD1CE60320C6
:1043CC00A0E5032038E603203CE6032018FCFFFFA1
:1043DC0038B5114C114D00232360A380A371A3F5B4
:1043EC008033A360022000F0BFFB0D492A46204613
:1043FC000C4C01F07BF902231A460C21204600F0EC
:10440C0069F809492A46204601F070F900F0A4FA2F
:10441C00064B186038BD00BF10E603200CE60320E5
:10442C00AB400D0024E603203D440D001CE60320A8
:10443C0010B50446C06808B100F01AFC23781BB113
:10444C00E079002101F0D0F8204610BD38B50446C3
:10445C00C0680D4608B100F00BFCA379062B0CBF0D
:10446C000420032010FB05F080B2A08000F0F8FBC4
:10447C00E06028B1A288002101F05EF9658038BDAA
:10448C00A0806080FBE710B504460121C07901F0E3
:10449C00ABF8E079002101F0B8F80123237010BDCE
:1044AC0037B5037805460C461BB1C079002101F0E5
:1044BC009BF82B78EC715BB1A0B20121019001F05B
:1044CC0093F80198002103B0BDE8304001F09DB88D
:1044DC0003B030BD70B50025044616468371C0E9A3
:1044EC00035505700572FFF7B1FF20463146FFF703
:1044FC00D7FF204670BD0000C368002B00F08D81F3
:10450C002DE9F04F8379023BDBB2042B9CBFC84AE8
:10451C0052F8234087B0054688BF322400F014FAC5
:10452C002B69C01AA042F9D3C24AAB8807CA06ACA1
:10453C0004E90700039CD4F800251AB9D4F86025C7
:10454C00002A7CDB049CD4F8002522B9D4F8602521
:10455C00002AC0F25281059CD4F80025002A00F0F4
:10456C003781B54BB5481C68EB79C1681A0104EB6F
:10457C000316A75C7378B24C41F08071C16022685D
:10458C0003F01F0343EA471301273A432260A9882B
:10459C00D5F80C80D4F804909F40002944D04FF0FB
:1045AC00000E72464FF0A04118F801CB082080266F
:1045BC0063689B1A462BFBD96268D1F808351CEA54
:1045CC00060F43EA0703C1F808352FD063689B1A1E
:1045DC00282BFBD9D1F80C35013843EA07034FEAF5
:1045EC005606C1F80C35E3D1AB880EF1010E1FFA5B
:1045FC008EFE7345D8D84FF4307101FB03F163681C
:10460C009B1A462BFBD96368A3EB09098945C0F0BB
:10461C00D9804FF4967000F08FF9A988D5F80C80EA
:10462C00D4F804900029BAD10A46E8E763689B1ACB
:10463C00112BCFD863689B1A112BF7D9CAE7D4F882
:10464C006425002ABFF67EAFD4F86825002ABFF691
:10465C0079AFD4F86C25002ABFF674AF1B01043374
:10466C001846009300F0FCFA00283FF47AAFAB88B0
:10467C00002B00F0DA80EA68013B12FA83FE02F1AB
:10468C00FF3C002348F2060248F20D011CF8017FA2
:10469C0017F0800F0CBF9046884620F8138003F16A
:1046AC00010817F0400F1FFA88F80CBF93468B4691
:1046BC0020F818B003F1020817F0200F1FFA88F841
:1046CC000CBF92468A4620F818A003F1030817F095
:1046DC00100F1FFA88F80CBF9146894620F81890E5
:1046EC0003F104091FFA89F917F0080F03F1050803
:1046FC000CBF92468A461FFA88F817F0040F20F870
:10470C0019A00CBF9146894620F8189003F10608B1
:10471C0017F0020F1FFA88F803F108060CBF914638
:10472C0089460733FF0720F8189001969BB275D580
:10473C00E64520F81310BDF80430A7D1591C0233FC
:10474C0089B29BB249005B00009A4FF40047475274
:10475C0056083949C75200224FF0140CC4F80425EE
:10476C00C4F80C25C4F808C5C4F81425C4F81025E1
:10477C00C4F82005C4F82465C4F82825C4F82C25F1
:10478C00EB790E6806EB031719017B78715C03F06B
:10479C001F0343EA41130121C4F86035C4F8001526
:1047AC00C4F81021A160D4F81031002BFBD00023E9
:1047BC004FF0FF32C4F81031C4F80035C4F860254E
:1047CC0000F056FA00F0C0F8286107B0BDE8F08F91
:1047DC00D4F86025002ABFF6C4AED4F86425002AAC
:1047EC00BFF6BFAED4F86825002ABFF6BAAED4F82F
:1047FC006C25002ABFF6B5AE30E7D4F86425002A44
:10480C00BFF6A9AED4F86825002ABFF6A4AED4F83A
:10481C006C25002ABFF69FAE20E77047E64520F8CE
:10482C001320B3B27FF432AF88E7042302218BE765
:10483C00E8570D00DC570D0040E60320F0ED00E0DA
:10484C00001000E070B544889DF810508C421BD9C4
:10485C00047A44B112FB04F214FB03F314FB05F4C9
:10486C00120A1B0A250AC668807901EB410102383D
:10487C007418062810D8DFE800F0040F08040F04A1
:10488C00040073546270A57070BDFE2A28BFFE220E
:10489C0072546570A370F7E772546370A570F3E7F8
:1048AC00037A4A1CD2B2934270B51ED0013B13F06E
:1048BC00FF03C4680CD0FF291FBF110201F1FF31A7
:1048CC00B1FBF3F39BB204BF4FF6FF71B1FBF3F3F3
:1048DC0025468688291B89B28E4205D929785943E9
:1048EC00091205F8011BF4E7027270BD8288C068DA
:1048FC00002100F021BF000008B500F035F8014B95
:10490C00186008BD40E6032008B5024B1B685B6CC1
:10491C00019308BD4802030008B5024B1B689B6C51
:10492C00019308BD4802030008B5024B1B685B6885
:10493C00019308BD1802030008B5024B1B68DB6825
:10494C00019308BD1802030008B5024B1B681B69D4
:10495C00019308BD1802030008B5024B1B685B6984
:10496C00019308BD1802030008B5024B1B681B68B5
:10497C00019308BD2C02030008B5024B1B685B6851
:10498C00019308BD2C02030008B5024B1B689B6801
:10499C00019308BD2C02030008B5024B1B68DB68B1
:1049AC00019308BD2C02030008B5024B1B681B6960
:1049BC00019308BD2C02030008B5024B1B681B6B4E
:1049CC00019308BD2C02030008B5024B1B681B6A3F
:1049DC00019308BD2802030008B5024B1B685B6AF3
:1049EC00019308BD2802030008B5024B1B689B6AA3
:1049FC00019308BD2802030008B5024B1B68DB6A53
:104A0C00019308BD2802030008B5024B1B681B6B01
:104A1C00019308BD2802030008B5024B1B685B6BB1
:104A2C00019308BD2802030008B5024B1B681B6CE0
:104A3C00019308BD2802030008B5024B1B685B6993
:104A4C00019308BD6402030008B5024B1B689B6808
:104A5C00019308BD6802030008B5024B1B68DB68B4
:104A6C00019308BD6802030008B5024B1B68DB69A3
:104A7C00019308BD3002030008B5024B1B681B6A8A
:104A8C00019308BD3002030008B5024B1B681B687C
:104A9C00019308BD3C02030008B5024B1B68DB68A0
:104AAC00019308BD3C02030008B5024B1B681B694F
:104ABC00019308BD3C02030008B5024B1B685B69FF
:104ACC00019308BD3C02030008B5024B1B689B69AF
:104ADC00019308BD3C02030008B5024B1B68DB695F
:104AEC00019308BD3C02030008B5024B1B681B6A0E
:104AFC00019308BD3C02030008B5024B1B689B6A7E
:104B0C00019308BD3C02030008B5024B1B681B68EF
:104B1C00019308BD4C02030008B5024B1B681B69CE
:104B2C00019308BD4C02030008B5024B1B685B697E
:104B3C00019308BD4C02030008B5024B1B689B692E
:104B4C00019308BD4C02030008B5024B1B68DB69DE
:104B5C00019308BD4C02030008B5024B1B681B6A8D
:104B6C00019308BD4C02030008B5024B1B685B683F
:104B7C00019308BD2002030008B5024B1B685B695A
:104B8C00019308BD2002030008B5034B1B68D3F842
:104B9C008830019308BD00002002030008B5034BC8
:104BAC001B68D3F89430019308BD00002002030069
:104BBC0008B5024B1B68DB6B019308BD4402030074
:104BCC0008B5024B1B685B68019308BD40020300EB
:104BDC0008B5024B1B689B68019308BD400203009B
:104BEC0008B5024B1B68DB68019308BD400203004B
:104BFC0008B5024B1B681B69019308BD40020300FA
:104C0C0008B5024B1B685B69019308BD40020300A9
:104C1C0008B5024B1B689B69019308BD4002030059
:104C2C0008B5024B1B68DB69019308BD4002030009
:104C3C0008B5024B1B681B6A019308BD40020300B8
:104C4C0008B5024B1B681B6B019308BD40020300A7
:104C5C0008B5024B1B685B6B019308BD4002030057
:104C6C0008B5024B1B681B68019308BD1C020300AE
:104C7C0008B5024B1B685B68019308BD1C0203005E
:104C8C0008B5024B1B685B6A019308BD1C0203004C
:104C9C0008B5024B1B685B6C019308BD1C0203003A
:104CAC000021FFF769BF10B50446006808B1FFF793
:104CBC0033FE204610BD000010B5064C00232046E4
:104CCC002360FFF721FE2046034A0449BDE810404B
:104CDC0000F00CBD44E603200CE60320B34C0D00A1
:104CEC0010B58368044613B1032201469847204649
:104CFC0010BD002240681146FFF79ABF00224068A1
:104D0C001146FFF7A5BF40680022FFF799BF406826
:104D1C00002281F00101FFF783BF002340681A468F
:104D2C001946FFF775BF002340681A461946FFF76E
:104D3C0067BF002240681146FFF75ABF0022406847
:104D4C001146FFF745BF406800220221FFF748BF1C
:104D5C00002340681A46FFF733BF0000024B0322C2
:104D6C005A60024A1A60704748E6032004580D0046
:104D7C007047F8B5064615460C468F18BC4206D04F
:104D8C00336814F8011B9B6830469847F6E72846B1
:104D9C00F8BD007C0022FFF717BE007C0021FFF756
:104DAC001BBE007C0021FFF71FBE007C0021FFF71B
:104DBC0023BE007C0021FFF727BE10B5142104464A
:104DCC0000F099FC204610BD10B54FF47A730446E0
:104DDC0008460021C4E90113034B236020741146DB
:104DEC00FFF722FE204610BD38580D00704710B555
:104DFC001821044600F07FFC204610BDF0B5037D61
:104E0C00062B8DB00E4600F104074FF0000412D0B3
:104E1C0000F1080515F8011D0A22304600F03FF993
:104E2C00AF42044419D0002CF4D02E21304600F0AF
:104E3C0027F90444EEE72F236A4639460A208DF8F9
:104E4C000040FFF7F9FD684600F0A2FC336802460B
:104E5C00DB68694630469847044620460DB0F0BDE5
:104E6C0010B5054B0446112240F8043B002100F01C
:104E7C0063FC204610BD00BF60580D000346074A76
:104E8C0010B543F8042B01F1100251F8044B43F810
:104E9C00044B9142F9D10A781A7010BD60580D007C
:104EAC0010B59DF8084044EA032343EA024242EA63
:104EBC00016104234160037510BD13B5CB780093D9
:104ECC008B784A780978FFF7EBFF02B010BD000031
:104EDC00014B024A1A60704750E603206C580D00D3
:104EEC00002340681A46FFF76BBE4068002202217F
:104EFC00FFF776BE002240681146FFF769BE00221C
:104F0C0040681146FFF774BE002340681A461946E4
:104F1C00FFF776BE002340681A461946FFF778BEA5
:104F2C004068002281F00101FFF77ABE4068002240
:104F3C00FFF786BE002240681146FFF789BE0022AB
:104F4C0040681146FFF774BE2DE9F043002495B07C
:104F5C0016460D460746FFF783FF214618220EA87A
:104F6C00009400F0E9FB4023CDE90C3421466B465C
:104F7C000CAA3046FFF770FD0446002846D10246C5
:104F8C0001216868FFF734FE0221804622466868DA
:104F9C00FFF72EFE009E81462146002E36D00029BA
:104FAC0034D17368022B03D00A2B0BD0F669F4E7CB
:104FBC00B8F1000F04D0716938460431FFF77DFF5A
:104FCC004146F3E7B9F1000F01D14946EEE77469A8
:104FDC00102201A800F0B0FB06238DF8143001ADAF
:104FEC0004F108031834186859682A4603C20833B8
:104FFC00A3421546F7D101A906A807ADFFF73EFF5E
:10500C000FCD3C1D0FC42B682370DEE70098FFF713
:10501C001BFD384615B0BDE8F0830000024B034A77
:10502C001A6000225A60704754E6032078580D002D
:10503C00F8B506460D468F180024BD420CD03368D7
:10504C0015F8011B9B6830469847031E01DB1C4476
:10505C00F3E7002C08BF1C462046F8BD13B50446E8
:10506C00084659B1019100F093FB23680199DB6864
:10507C000246204602B0BDE81040184702B010BDF1
:10508C0003689B68184738B50D210546FFF7F8FFF4
:10509C000A2104462846FFF7F3FF204438BD30B5FB
:1050AC008BB000238DF82430012A98BF0A2209AC5A
:1050BC000D46B1FBF2F101FB125303F0FF03092B78
:1050CC0094BF30333733DBB2AA4204F8013DEFD939
:1050DC002146FFF7C3FF0BB030BD2DE9F04186B080
:1050EC0000AF05460E46381D142114463B60FFF7F1
:1050FC00C7FD13280ED8391D2846FFF7AFFF04460D
:10510C001EB12846FFF7BFFF044420461837BD46A2
:10511C00BDE8F08100F1080323F00703E846ADEB8E
:10512C00030D2246411C3B686846FFF7A9FD694602
:10513C002846FFF793FF0446C546E1E710B5044641
:10514C00FFF7CEFD204610BD0348044A0449002356
:10515C00836000F0CBBA00BF5CE603200CE60320B2
:10516C0049510D0010B5044608462170FFF77CFC30
:10517C0000236360204610BD10B5094B094C022278
:10518C0000201A60084B2060A080A071A360FFF77C
:10519C00EBFC2046054A0649BDE8104000F0A6BAD3
:1051AC0078E603206CE603200000FFFF0CE60320EA
:1051BC00AB400D00024B1A68024B1A60704700BFDF
:1051CC00A4E503207CE6032070474174704708B5C2
:1051DC00007CFFF791FC20EAE07008BD08B5007C6C
:1051EC00FFF762FC20EAE07008BD08B5007CFFF711
:1051FC006BFC40EAE07008BD08B5007CFFF75CFC76
:10520C0040EAE07008BD007CFFF766BC37B5457C12
:10521C0004462DB1207C03B0BDE83040FFF73CBC08
:10522C00007C0191FFF768FC00280199F2DC28460C
:10523C0003B030BD10B51421044600F05CFA2046D2
:10524C0010BD000010B54FF0000C04460846114686
:10525C004FF47A72C4E901C2044A2260012220741C
:10526C0062741A46FFF710FC204610BDC8580D009A
:10527C0013B50E4C2178BFF35B8F11F0010112D1E5
:10528C0020460191FEF703FF019960B1084A094BD2
:10529C000948FFF7D7FF2046FEF7FEFE074A0849EC
:1052AC00054800F023FA044802B010BD80E6032044
:1052BC0084E6032008E703208CE703200CE6032098
:1052CC00D5510D0041747047704708B50021007C22
:1052DC00FFF732FC40EAE07008BD08B50121007C04
:1052EC00FFF72AFC40EAE07008BD08B5007CFFF728
:1052FC001BFC20EAE07008BD08B5007CFFF70CFC35
:10530C0020EAE07008BD13B50446007C0191FFF75C
:10531C000BFC0028019901DC607C20B1207CFFF79C
:10532C0013FC20EAE07002B010BD007CFFF714BC47
:10533C0010B51421044600F0DEF9204610BD000023
:10534C0010B54FF47A73044608460021C4E90113E2
:10535C00044B23600123207463741146FFF7D4FBC4
:10536C00204610BDF8580D0010B51422044600213B
:10537C0000F0E2F9204610BD10B5104C88B003A81F
:10538C00FFF7F2FF2178BFF35B8F11F0010111D110
:10539C0020460191FEF77BFE019958B103AA0848FB
:1053AC00FFF7CEFF2046FEF777FE064A0649044873
:1053BC0000F09CF9024808B010BD00BFA0E7032024
:1053CC00A4E703200CE60320D5520D000022406810
:1053DC001146FFF70DBC002240681146FFF728BCB0
:1053EC00002240681146FFF733BC40680022FFF7EB
:1053FC0027BC4068002281F00101FFF711BC00239B
:10540C0040681A461946FFF703BC002340681A4649
:10541C001946FFF7F5BB002240681146FFF7D8BBD1
:10542C00406800220221FFF7DBBB002340681A46CC
:10543C00FFF7C6BB024B04225A60024A1A6070473F
:10544C00B8E7032028590D00014B1860704700BFC6
:10545C00A8E5032008B50B4B43B1FFF78DFF03689C
:10546C001B699847002801DDAFF30080064B43B160
:10547C00FFF7FEFE03681B699847002801DDAFF3B8
:10548C00008008BD000000000000000008B5FFF718
:10549C00E1FFFFF761FA014B186008BDD4E7032068
:1054AC000248034A0349121A00F038B900F40320E9
:1054BC0004F4032080590D0007B5002300931A460D
:1054CC006FF07701FFF76AFB03B05DF804FB000097
:1054DC0007B543880A2B08D0502B0BD1094B1B68FE
:1054EC004BB103B05DF804EB1847FFF7E5FF03B0D1
:1054FC005DF804FB002300931A466FF07701FFF769
:10550C004DFBF4E7C4E7032038B5124C1248134D99
:10551C000021FFF7BDFB2368AB42114B0CBF0122EE
:10552C0000221A7002D0FFF7BBFF2560FFF7FCF9D1
:10553C00044600F009F90B4B13B12046AFF3008081
:10554C0000210848FFF734FBBDE83840064800212D
:10555C00FFF71ABB00F4032055540D001E1C279AAC
:10556C00C0E7032000000000DD540D00232813B514
:10557C0002D9002002B010BDA0F10B03022B1AD8E7
:10558C00174C2178BFF35B8F11F001010BD1204632
:10559C000191FEF77CFD019928B11248FFF7E2FD5D
:1055AC002046FEF779FD0F4B1878FFF765FA0028B7
:1055BC00DFD10120DEE7012809D800F06FF80021C7
:1055CC00007CFFF729FA80F00100C0B2D2E709385D
:1055DC000128EED8FFF74CFE007CFFF785FAF2E7C6
:1055EC00C8E70320CCE70320232838B504460D4632
:1055FC000AD8FF2908D0FFF7B9FF28B12946204661
:10560C00BDE83840FFF7C0B938BD38B504460D4683
:10561C00FFF7C2F9FF2810D0062804D84D2323FA2F
:10562C0000F0C30709D42046FFF7A0FF28B1294694
:10563C002046BDE83840FFF7B7B938BD0D2810B586
:10564C0004469CBF0E34A4B22046FFF78FFF50B126
:10565C0003212046FFF790F9032804D12046BDE82A
:10566C001040FFF7A9B9002010BD000038B5002389
:10567C002025438014230446038085600561064978
:10568C00284600F03AF804496060284600F035F8E6
:10569C00E060204638BD00BF54590D0030B50F4DA9
:1056AC002978BFF35B8F11F0010487B013D1284622
:1056BC00FEF7EDFC78B101A8FFF7D8FF01AA21464F
:1056CC000748FFF781FB2846FEF7E6FC054A06492A
:1056DC00034800F00BF8024807B030BDD8E70320B0
:1056EC00DCE703200CE603207D4D0D000B46014644
:1056FC00184600F005B8FEF7C8BCFEF7C4BC0000A5
:10570C0010B5054C13462CB10A4601460220AFF3E6
:10571C00008010BD2046FCE7000000000A449142C6
:10572C0000F1FF3300D1704710B511F8014B03F8AD
:10573C00014F9142F9D110BD02440346934200D16E
:10574C00704703F8011BF9E738B50D4B1D68AB6BBF
:10575C0004467BB91820FFF783FA0A4A0A4BA86360
:10576C00C0E90023094B83600B23838101220023B2
:10577C00C0E90423AB6B00221C615A6138BD00BF29
:10578C00A8E503200E33CDAB34126DE6ECDE05003C
:10579C00034613F8012B002AFBD1181A0138704765
:1057AC001D400D0059400D0081400D0085400D003D
:1057BC0000000000736F696C5B695D203D202569FA
:1057CC002069203D2025690A004F7665720A000089
:1057DC0000C0014000100240002002402C010000DB
:1057EC0018000000F40100002C0100005000000023
:1057FC0000000000000000005D4D0D00534D0D0039
:10580C00494D0D003F4D0D00334D0D00274D0D0042
:10581C001B4D0D00134D0D00094D0D00FF4C0D00DF
:10582C00554F0D0000000000000000007D4D0D00E4
:10583C00C74D0D009F4D0D007F4D0D00A74D0D0068
:10584C00AF4D0D00B74D0D00BF4D0D000000000019
:10585C0000000000094E0D00F94D0D00FB4D0D0030
:10586C00617070000000000000000000ED4E0D00A3
:10587C00F74E0D00014F0D000B4F0D00154F0D0095
:10588C00214F0D002D4F0D00394F0D00414F0D00D4
:10589C004B4F0D00554F0D0025592D256D2D2564B1
:1058AC005425483A254D3A2553257A006173637483
:1058BC00696D65000000000000000000D5510D006E
:1058CC0041520D0019520D003D500D00E9510D00D3
:1058DC0005520D00F7510D0013520D00D7510D005C
:1058EC00DB510D000000000000000000D5520D003F
:1058FC003D530D0013530D003D500D0005530D008D
:10590C00D7520D00E7520D0037530D00F7520D0022
:10591C00D1520D00000000000000000037540D00B3
:10592C002D540D0023540D00D9530D0017540D00A8
:10593C000B540D00FF530D00F7530D00ED530D00EC
:10594C00E3530D00554F0D0000000000DD430D002A
:10595C0005490D00C54C0D00694D0D00DD4E0D00C7
:10596C0029500D0055510D0085510D00C1510D00F0
:04597C0041540D0085
:045980000000000023
:105984002C0100006400000064000000110000000D
:10599400B8580D00ACE50320000000000000000032
:1059A40000000000000000000000000000000000F3
:1059B40000000000000000000000000000000000E3
:1059C40000000000000000000000000000000000D3
:1059D40000000000000000000000000000000000C3
:1059E40000000000000000000000000000000000B3
:0859F4000000000000000000AB
:1059FC00FFFFFFFF00000102030405060708090A68
:105A0C000B0C0D0E0F101112131415161718191A62
:085A1C001B1C1D1E1F202800A9
:045A2400785634126A
:04000003D000401CCD
:00000001FF
