:02000002D0002C
:1040000000400D00CC5A0D00000006000C00050118
:084010000401DB0700000000C1
:0440180048580D00F7
:10401C0009480A49884208B505D0094A824202D0AB
:10402C00121A01F0C9FB0748074A0021121A01F0C5
:10403C00D1FB014808BD00BF8CE50320345A0D00AC
:10404C00FCE50320FCE50320F0E7032070B5074EE8
:10405C00074C01F0A7FAA41BA4080025A54200D127
:10406C0070BD56F8043B98470135F7E7085A0D0028
:10407C00305A0D0000F02AB808B500F0CFF9BDE8B1
:10408C00084001F051BA00F03DBE00F043BE00788C
:10409C00B0FA80F04009704701230370704710B5E7
:1040AC000446006808B100F035FE204610BD0EB481
:1040BC0003B503AB002153F8042B019301F05BF81B
:1040CC0002B05DF804EB03B07047000008B50B4B71
:1040DC000021188801F0D6FA094800F02EFA084899
:1040EC0000F064FA064800F05BFC0548142100F06F
:1040FC0031FC00F08BFC034B186008BD90E50320ED
:10410C0024E6032014E60320F7B500F07FFC174CDF
:10411C00174E054600F07AFC401BB0F5967F12D284
:10412C0000232370FF2721780C29F3D8FF231A468C
:10413C003046009700F0E0FB304600F037FA237869
:10414C0001332370EFE700F061FC094D044600F0E9
:10415C005DFC001B632806D8284600F021FC28468D
:10416C0000F024FAF3E703B0F0BD00BF20E6032013
:10417C0024E60320F7B500F049FC164C164E054614
:10418C0000F044FC401B632812D800232370FF2747
:10419C0021780C29F4D8FF231A463046009700F0FA
:1041AC00ABFB304600F002FA237801332370EFE7C3
:1041BC0000F02CFC084D044600F028FC001B632882
:1041CC0006D8284600F0ECFB284600F0EFF9F3E7A0
:1041DC0003B0F0BD20E6032024E6032038B500F040
:1041EC0015FC084D044600F011FC001BB0F5967F41
:1041FC0006D2284600F0D4FB284600F0D7F9F2E7A7
:10420C0038BD00BF24E603202DE9F843774D784CE8
:10421C002B7893B1FFF7AEFFFFF776FFFFF7AAFFFE
:10422C0000232B70734B01221A7000F0EFFB2060FF
:10423C0001F0F0F87049FFF73AFF00F0E7FB236854
:10424C006E4CC01AB0F5967F19D96A4E3378B3B15B
:10425C00FFF75AFFFFF78EFFFFF756FFFFF78AFFB6
:10426C00FFF752FF00233370654B01221A7000F0E8
:10427C00CDFB206001F0CEF86249FFF718FF00F08B
:10428C00C5FB2368C01AB0F5967F4BD95C4E3378CA
:10429C00002B47D05C4C5D4FDFF87881DFF87891CC
:1042AC000023237001F0B6F823784146FA5CFFF73F
:1042BC00FEFE2378FB5C092B12D8DFE803F00535F2
:1042CC003845525F6C6F7C89FFF71EFFFFF71CFFB0
:1042DC00FFF71AFFFFF718FFFFF716FFFFF77EFF38
:1042EC002378032B18D1FFF745FFFFF70DFFFFF7DE
:1042FC0041FFFFF709FFFFF73DFF01F08BF849463F
:10430C00FFF7D5FE00F082FB414B3A4A18600123BF
:10431C002B7000231370337023780133DBB2032B23
:10432C002370BFD9BDE8F883FFF724FFCEE7FFF772
:10433C0021FFFFF71FFFFFF7E7FEFFF7E5FEFFF793
:10434C00E3FEFFF74BFFCBE7FFF714FFFFF712FF7E
:10435C00FFF710FFFFF7D8FEFFF7D6FEFFF73EFF83
:10436C00BEE7FFF707FFFFF705FFFFF703FFFFF7B8
:10437C0001FFFFF7C9FEFFF731FFB1E7FFF7FAFEC8
:10438C00FFF7F8FEFFF7F6FEFFF7F4FEFFF7F2FE7D
:10439C00FFF724FFA4E7FFF7B7FEF1E7FFF7B4FE42
:1043AC00FFF7B2FEFFF7E6FEFFF7E4FEFFF7E2FED3
:1043BC00FFF714FF94E7FFF7A7FEFFF7A5FEFFF743
:1043CC00A3FEFFF7D7FEFFF7D5FEFFF707FF87E742
:1043DC00FFF79AFEFFF798FEFFF796FEFFF794FEA5
:1043EC00FFF7C8FEFFF7FAFE7AE700BF8CE5032063
:1043FC0010E603200CE603205C580D001CE603209D
:10440C0019E6032067580D0018E6032038E6032050
:10441C0014E603206F580D0084580D0008B500F009
:10442C00F5FA164B1B68C01A42F21073984223D946
:10443C00134B188801F050F9124A134B13491860AA
:10444C004FF47A7390FBF3F31370DBB201FB0300B0
:10445C006FF06301642390FBF3F35370DBB201FB49
:10446C0003000A2190FBF1F301FB13009370D07051
:10447C00BDE80840FFF7C8BE08BD00BF14E6032026
:10448C0090E5032038E603203CE6032018FCFFFFF0
:10449C0038B50F4C0F4D00232360A380A371A3F5F7
:1044AC008033A360022000F0B9FB2A460A4920465B
:1044BC000A4C01F069F902231A460C21204600F03F
:1044CC0063F82A4620460649BDE8384001F05CB93D
:1044DC0000E60320FCE50320AB400D0024E603209E
:1044EC00F1440D0010B50446C06808B100F012FC90
:1044FC0023781BB1E079002101F0C4F8204610BDEF
:10450C0038B50446C0680D4608B100F003FCA37929
:10451C00062B0CBF0420032010FB05F080B2A080FA
:10452C0000F0F0FBE06028B1A288002101F052F904
:10453C00658038BDA0806080FBE710B50446012182
:10454C00C07901F09FF8E079002101F0ACF801236B
:10455C00237010BD37B5037805460C461BB1C079E6
:10456C00002101F08FF82B78EC715BB1A0B2012126
:10457C00019001F087F80198002103B0BDE83040AC
:10458C0001F091B803B030BD70B500250446164655
:10459C008371C0E9035505700572FFF7B1FF204622
:1045AC003146FFF7D7FF204670BD0000C368002BD3
:1045BC0000F08D812DE9F04F8379023BDBB2042BA7
:1045CC009CBFC84A52F8234087B0054688BF3224A6
:1045DC0000F014FA2B69C01AA042F9D3C24AAB8876
:1045EC0007CA06AC04E90700039CD4F800251AB9E5
:1045FC00D4F86025002A7CDB049CD4F8002522B971
:10460C00D4F86025002AC0F25281059CD4F800250C
:10461C00002A00F03781B54BB5481C68EB79C168AE
:10462C001A0104EB0316A75C7378B24C41F080714D
:10463C00C160226803F01F0343EA471301273A4382
:10464C002260A988D5F80C80D4F804909F400029EA
:10465C0044D04FF0000E72464FF0A04118F801CB39
:10466C000820802663689B1A462BFBD96268D1F818
:10467C0008351CEA060F43EA0703C1F808352FD0AA
:10468C0063689B1A282BFBD9D1F80C35013843EA07
:10469C0007034FEA5606C1F80C35E3D1AB880EF18F
:1046AC00010E1FFA8EFE7345D8D84FF4307101FB02
:1046BC0003F163689B1A462BFBD96368A3EB0909CA
:1046CC008945C0F0D9804FF4967000F08FF9A98815
:1046DC00D5F80C80D4F804900029BAD10A46E8E742
:1046EC0063689B1A112BCFD863689B1A112BF7D9CF
:1046FC00CAE7D4F86425002ABFF67EAFD4F8682543
:10470C00002ABFF679AFD4F86C25002ABFF674AF37
:10471C001B0104331846009300F0F4FA00283FF410
:10472C007AAFAB88002B00F0DA80EA68013B12FA12
:10473C0083FE02F1FF3C002348F2060248F20D0111
:10474C001CF8017F17F0800F0CBF9046884620F8AC
:10475C00138003F1010817F0400F1FFA88F80CBF03
:10476C0093468B4620F818B003F1020817F0200F7F
:10477C001FFA88F80CBF92468A4620F818A003F15D
:10478C00030817F0100F1FFA88F80CBF91468946E2
:10479C0020F8189003F104091FFA89F917F0080F93
:1047AC0003F105080CBF92468A461FFA88F817F0E9
:1047BC00040F20F819A00CBF9146894620F81890D8
:1047CC0003F1060817F0020F1FFA88F803F1080628
:1047DC000CBF914689460733FF0720F818900196C5
:1047EC009BB275D5E64520F81310BDF80430A7D15F
:1047FC00591C023389B29BB249005B00009A4FF4FA
:10480C000047475256083949C75200224FF0140C42
:10481C00C4F80425C4F80C25C4F808C5C4F814253C
:10482C00C4F81025C4F82005C4F82465C4F828255C
:10483C00C4F82C25EB790E6806EB031719017B786D
:10484C00715C03F01F0343EA41130121C4F8603586
:10485C00C4F80015C4F81021A160D4F81031002B55
:10486C00FBD000234FF0FF32C4F81031C4F80035F0
:10487C00C4F8602500F04EFA00F0C0F8286107B0CB
:10488C00BDE8F08FD4F86025002ABFF6C4AED4F88A
:10489C006425002ABFF6BFAED4F86825002ABFF6FF
:1048AC00BAAED4F86C25002ABFF6B5AE30E7D4F812
:1048BC006425002ABFF6A9AED4F86825002ABFF6F5
:1048CC00A4AED4F86C25002ABFF69FAE20E7704743
:1048DC00E64520F81320B3B27FF432AF88E7042307
:1048EC0002218BE798580D008C580D0040E60320F0
:1048FC00F0ED00E0001000E070B544889DF8105019
:10490C008C421BD9047A44B112FB04F214FB03F35E
:10491C0014FB05F4120A1B0A250AC668807901EB00
:10492C00410102387418062810D8DFE800F0040F93
:10493C0008040F04040073546270A57070BDFE2A45
:10494C0028BFFE2272546570A370F7E7725463702F
:10495C00A570F3E7037A4A1CD2B2934270B51ED00D
:10496C00013B13F0FF03C4680CD0FF291FBF1102D9
:10497C0001F1FF31B1FBF3F39BB204BF4FF6FF71B2
:10498C00B1FBF3F325468688291B89B28E4205D9E3
:10499C0029785943091205F8011BF4E7027270BD1E
:1049AC008288C068002100F015BF000008B500F037
:1049BC0035F8014B186008BD40E6032008B5024BE2
:1049CC001B685B6C019308BD4802030008B5024BE1
:1049DC001B689B6C019308BD4802030008B5024B91
:1049EC001B685B68019308BD1802030008B5024BF5
:1049FC001B68DB68019308BD1802030008B5024B65
:104A0C001B681B69019308BD1802030008B5024B13
:104A1C001B685B69019308BD1802030008B5024BC3
:104A2C001B681B68019308BD2C02030008B5024BE0
:104A3C001B685B68019308BD2C02030008B5024B90
:104A4C001B689B68019308BD2C02030008B5024B40
:104A5C001B68DB68019308BD2C02030008B5024BF0
:104A6C001B681B69019308BD2C02030008B5024B9F
:104A7C001B681B6B019308BD2C02030008B5024B8D
:104A8C001B681B6A019308BD2802030008B5024B82
:104A9C001B685B6A019308BD2802030008B5024B32
:104AAC001B689B6A019308BD2802030008B5024BE2
:104ABC001B68DB6A019308BD2802030008B5024B92
:104ACC001B681B6B019308BD2802030008B5024B41
:104ADC001B685B6B019308BD2802030008B5024BF1
:104AEC001B681B6C019308BD2802030008B5024B20
:104AFC001B685B69019308BD6402030008B5024B97
:104B0C001B689B68019308BD6802030008B5024B43
:104B1C001B68DB68019308BD6802030008B5024BF3
:104B2C001B68DB69019308BD3002030008B5024B1A
:104B3C001B681B6A019308BD3002030008B5024BC9
:104B4C001B681B68019308BD3C02030008B5024BAF
:104B5C001B68DB68019308BD3C02030008B5024BDF
:104B6C001B681B69019308BD3C02030008B5024B8E
:104B7C001B685B69019308BD3C02030008B5024B3E
:104B8C001B689B69019308BD3C02030008B5024BEE
:104B9C001B68DB69019308BD3C02030008B5024B9E
:104BAC001B681B6A019308BD3C02030008B5024B4D
:104BBC001B689B6A019308BD3C02030008B5024BBD
:104BCC001B681B68019308BD4C02030008B5024B1F
:104BDC001B681B69019308BD4C02030008B5024B0E
:104BEC001B685B69019308BD4C02030008B5024BBE
:104BFC001B689B69019308BD4C02030008B5024B6E
:104C0C001B68DB69019308BD4C02030008B5024B1D
:104C1C001B681B6A019308BD4C02030008B5024BCC
:104C2C001B685B68019308BD2002030008B5034BA9
:104C3C001B68D3F88830019308BD000020020300E4
:104C4C0008B5034B1B68D3F89430019308BD0000E2
:104C5C002002030008B5024B1B68DB6B019308BDF7
:104C6C004402030008B5024B1B685B68019308BD46
:104C7C004002030008B5024B1B689B68019308BDFA
:104C8C004002030008B5024B1B68DB68019308BDAA
:104C9C004002030008B5024B1B681B69019308BD59
:104CAC004002030008B5024B1B685B69019308BD09
:104CBC004002030008B5024B1B689B69019308BDB9
:104CCC004002030008B5024B1B68DB69019308BD69
:104CDC004002030008B5024B1B681B6A019308BD18
:104CEC004002030008B5024B1B681B6B019308BD07
:104CFC004002030008B5024B1B685B6B019308BDB7
:104D0C004002030008B5024B1B681B68019308BDE9
:104D1C001C02030008B5024B1B685B68019308BDBD
:104D2C001C02030008B5024B1B685B6A019308BDAB
:104D3C001C02030008B5024B1B685B6C019308BD99
:104D4C001C02030010B50446006808B1FFF73EFED4
:104D5C00204610BD10B5064C002320462360FFF7FB
:104D6C002DFE2046034A0449BDE8104000F00CBD5E
:104D7C0044E60320FCE50320514D0D0010B583687B
:104D8C00044613B1032201469847204610BD002269
:104D9C0040681146FFF79EBF002240681146FFF79E
:104DAC00A9BF40680022FFF79DBF4068002281F038
:104DBC000101FFF787BF002340681A461946FFF729
:104DCC0079BF002340681A461946FFF76BBF0022D3
:104DDC0040681146FFF75EBF002240681146FFF79E
:104DEC0049BF406800220221FFF74CBF00234068F6
:104DFC001A46FFF737BF0000024B03225A60024AE3
:104E0C001A60704748E60320B4580D007047F8B597
:104E1C00064615460C468F18BC4206D0336814F86B
:104E2C00011B9B6830469847F6E72846F8BD007C86
:104E3C000022FFF723BE007C0021FFF727BE007C79
:104E4C000021FFF72BBE007C0021FFF72FBE007C5A
:104E5C000021FFF733BE10B51421044600F099FC75
:104E6C00204610BD10B54FF47A7304460846002155
:104E7C00C4E90113034B236020741146FFF72EFE87
:104E8C00204610BDE8580D00704710B51821044697
:104E9C0000F07FFC204610BDF0B5037D062B8DB0D5
:104EAC000E4600F104074FF0000412D000F1080583
:104EBC0015F8011D0A22304600F03FF9AF420444B8
:104ECC0019D0002CF4D02E21304600F027F90444E0
:104EDC00EEE72F236A4639460A208DF80040FFF78B
:104EEC0005FE684600F0A2FC33680246DB686946A2
:104EFC0030469847044620460DB0F0BD10B5054B22
:104F0C000446112240F8043B002100F063FC2046CB
:104F1C0010BD00BF10590D000346074A10B543F8E9
:104F2C00042B01F1100251F8044B43F8044B91424D
:104F3C00F9D10A781A7010BD10590D0010B59DF8F2
:104F4C00084044EA032343EA024242EA0161042393
:104F5C004160037510BD13B5CB7800938B784A78FC
:104F6C000978FFF7EBFF02B010BD0000014B024ABD
:104F7C001A60704750E603201C590D00002340684E
:104F8C001A46FFF76FBE406800220221FFF77ABE77
:104F9C00002240681146FFF76DBE002240681146A2
:104FAC00FFF778BE002340681A461946FFF77ABE11
:104FBC00002340681A461946FFF77CBE4068002261
:104FCC0081F00101FFF77EBE40680022FFF78ABE28
:104FDC00002240681146FFF78DBE00224068114642
:104FEC00FFF778BE2DE9F043002495B016460D4628
:104FFC000746FFF783FF214618220EA8009400F005
:10500C00E9FB4023CDE90C3421466B460CAA304613
:10501C00FFF77CFD0446002846D102460121686852
:10502C00FFF738FE0221804622466868FFF732FE01
:10503C00009E81462146002E36D0002934D173685B
:10504C00022B03D00A2B0BD0F669F4E7B8F1000F52
:10505C0004D0716938460431FFF77DFF4146F3E710
:10506C00B9F1000F01D14946EEE77469102201A88D
:10507C0000F0B0FB06238DF8143001AD04F10803E9
:10508C001834186859682A4603C20833A3421546D7
:10509C00F7D101A906A807ADFFF73EFF0FCD3C1DC8
:1050AC000FC42B682370DEE70098FFF727FD384606
:1050BC0015B0BDE8F0830000024B034A1A600022D1
:1050CC005A60704754E6032028590D00F8B506467F
:1050DC000D468F180024BD420CD0336815F8011B07
:1050EC009B6830469847031E01DB1C44F3E7002CF9
:1050FC0008BF1C462046F8BD13B50446084659B1F6
:10510C00019100F093FB23680199DB68024620466D
:10511C0002B0BDE81040184702B010BD03689B6890
:10512C00184738B50D210546FFF7F8FF0A2104464C
:10513C002846FFF7F3FF204438BD30B58BB0002371
:10514C008DF82430012A98BF0A2209AC0D46B1FB18
:10515C00F2F101FB125303F0FF03092B94BF303320
:10516C003733DBB2AA4204F8013DEFD92146FFF7F1
:10517C00C3FF0BB030BD2DE9F04186B000AF054642
:10518C000E46381D142114463B60FFF7CBFD132847
:10519C000ED8391D2846FFF7AFFF04461EB128462E
:1051AC00FFF7BFFF044420461837BD46BDE8F08129
:1051BC0000F1080323F00703E846ADEB030D22468C
:1051CC00411C3B686846FFF7ADFD69462846FFF772
:1051DC0093FF0446C546E1E710B50446FFF7CEFD44
:1051EC00204610BD0348044A04490023836000F0A4
:1051FC00CBBA00BF5CE60320FCE50320E5510D00B3
:10520C0010B5044608462170FFF788FC0023636044
:10521C00204610BD10B5094B094C022200201A6023
:10522C00084B2060A080A071A360FFF7F7FC20461C
:10523C00054A0649BDE8104000F0A6BA78E60320FE
:10524C006CE603200000FFFFFCE50320AB400D00E3
:10525C00024B1A68024B1A60704700BF94E503209A
:10526C007CE6032070474174704708B5007CFFF75B
:10527C009DFC20EAE07008BD08B5007CFFF76EFCD1
:10528C0020EAE07008BD08B5007CFFF777FC40EA27
:10529C00E07008BD08B5007CFFF768FC40EAE070E0
:1052AC0008BD007CFFF772BC37B5457C04462DB1B8
:1052BC00207C03B0BDE83040FFF748BC007C019176
:1052CC00FFF774FC00280199F2DC284603B030BDCE
:1052DC0010B51421044600F05CFA204610BD000005
:1052EC0010B54FF0000C0446084611464FF47A7284
:1052FC00C4E901C2044A22600122207462741A4675
:10530C00FFF71CFC204610BD78590D0013B50E4C50
:10531C002178BFF35B8F11F0010112D1204601916E
:10532C00FEF7B5FE019960B1084A094B0948FFF731
:10533C00D7FF2046FEF7B0FE074A0849054800F0A3
:10534C0023FA044802B010BD80E6032084E6032053
:10535C0008E703208CE70320FCE5032071520D00C5
:10536C0041747047704708B50021007CFFF73EFC84
:10537C0040EAE07008BD08B50121007CFFF736FC5F
:10538C0040EAE07008BD08B5007CFFF727FC20EA76
:10539C00E07008BD08B5007CFFF718FC20EAE0704F
:1053AC0008BD13B50446007C0191FFF717FC0028DB
:1053BC00019901DC607C20B1207CFFF71FFC20EA06
:1053CC00E07002B010BD007CFFF720BC10B51421BA
:1053DC00044600F0DEF9204610BD000010B54FF475
:1053EC007A73044608460021C4E90113044B236078
:1053FC000123207463741146FFF7E0FB204610BDB7
:10540C00A8590D0010B514220446002100F0E2F951
:10541C00204610BD10B5104C88B003A8FFF7F2FF62
:10542C002178BFF35B8F11F0010111D1204601915E
:10543C00FEF72DFE019958B103AA0848FFF7CEFFDD
:10544C002046FEF729FE064A0649044800F09CF95E
:10545C00024808B010BD00BFA0E70320A4E703205A
:10546C00FCE5032071530D00002240681146FFF744
:10547C0011BC002240681146FFF72CBC002240688A
:10548C001146FFF737BC40680022FFF72BBC406881
:10549C00002281F00101FFF715BC002340681A4679
:1054AC001946FFF707BC002340681A461946FFF758
:1054BC00F9BB002240681146FFF7DCBB40680022B4
:1054CC000221FFF7DFBB002340681A46FFF7CABB77
:1054DC00024B04225A60024A1A607047B8E7032054
:1054EC00D8590D00014B1860704700BF98E5032098
:1054FC0008B50B4B43B1FFF78DFF03681B69984749
:10550C00002801DDAFF30080064B43B1FFF7FEFE30
:10551C0003681B699847002801DDAFF3008008BDC4
:10552C00000000000000000008B5FFF7E1FFFFF7E6
:10553C006DFA014B186008BDD4E703200248034AFA
:10554C000349121A00F038B900F4032004F40320C4
:10555C00305A0D0007B5002300931A466FF07701FF
:10556C00FFF76EFB03B05DF804FB000007B5438842
:10557C000A2B08D0502B0BD1094B1B684BB103B035
:10558C005DF804EB1847FFF7E5FF03B05DF804FB8B
:10559C00002300931A466FF07701FFF751FBF4E7F5
:1055AC00C4E7032038B5124C1248134D0021FFF705
:1055BC00C1FB2368AB42114B0CBF012200221A70B5
:1055CC0002D0FFF7BBFF2560FFF708FA044600F096
:1055DC0009F90B4B13B12046AFF3008000210848AA
:1055EC00FFF738FBBDE8384006480021FFF71EBB2B
:1055FC0000F40320F1540D001E1C279AC0E7032071
:10560C000000000079550D00232813B502D90020A5
:10561C0002B010BDA0F10B03022B1AD8174C217845
:10562C00BFF35B8F11F001010BD120460191FEF706
:10563C002EFD019928B11248FFF7E2FD2046FEF736
:10564C002BFD0F4B1878FFF771FA0028DFD10120E2
:10565C00DEE7012809D800F06FF80021007CFFF785
:10566C0035FA80F00100C0B2D2E709380128EED833
:10567C00FFF74CFE007CFFF791FAF2E7C8E7032036
:10568C00CCE70320232838B504460D460AD8FF2959
:10569C0008D0FFF7B9FF28B129462046BDE83840AD
:1056AC00FFF7CCB938BD38B504460D46FFF7CEF937
:1056BC00FF2810D0062804D84D2323FA00F0C30786
:1056CC0009D42046FFF7A0FF28B129462046BDE8A3
:1056DC003840FFF7C3B938BD0D2810B504469CBF40
:1056EC000E34A4B22046FFF78FFF50B103212046A1
:1056FC00FFF79CF9032804D12046BDE81040FFF7C2
:10570C00B5B9002010BD000038B50023202543801A
:10571C00142304460380856005610649284600F081
:10572C003AF804496060284600F035F8E0602046FD
:10573C0038BD00BF045A0D0030B50F4D2978BFF3AA
:10574C005B8F11F0010487B013D12846FEF79FFC44
:10575C0078B101A8FFF7D8FF01AA21460748FFF747
:10576C0081FB2846FEF798FC054A0649034800F0E1
:10577C000BF8024807B030BDD8E70320DCE7032064
:10578C00FCE50320194E0D000B460146184600F0AF
:10579C0005B8FEF77ABCFEF776BC000010B5054CD8
:1057AC0013462CB10A4601460220AFF3008010BD0F
:1057BC002046FCE7000000000A44914200F1FF3350
:1057CC0000D1704710B511F8014B03F8014F91420D
:1057DC00F9D110BD02440346934200D1704703F83F
:1057EC00011BF9E738B50D4B1D68AB6B04467BB953
:1057FC001820FFF787FA0A4A0A4BA863C0E900236E
:10580C00094B83600B23838101220023C0E904230D
:10581C00AB6B00221C615A6138BD00BF98E50320B8
:10582C000E33CDAB34126DE6ECDE0500034613F8F7
:10583C00012B002AFBD1181A013870471D400D00AE
:10584C0059400D0081400D0085400D000000000006
:10585C0043616C6962726174650A0043616D6572C3
:10586C00610A00736F696C5B695D203D20256920BE
:10587C0069203D2025690A004F7665720A000000F8
:10588C0000C0014000100240002002402C0100002A
:10589C0018000000F40100002C0100005000000072
:1058AC000000000000000000F94D0D00EF4D0D0050
:1058BC00E54D0D00DB4D0D00CF4D0D00C34D0D0022
:1058CC00B74D0D00AF4D0D00A54D0D009B4D0D00BE
:1058DC00F14F0D000000000000000000194E0D00FB
:1058EC00634E0D003B4E0D001B4E0D00434E0D0044
:1058FC004B4E0D00534E0D005B4E0D000000000092
:10590C0000000000A54E0D00954E0D00974E0D00A9
:10591C00617070000000000000000000894F0D0055
:10592C00934F0D009D4F0D00A74F0D00B14F0D0073
:10593C00BD4F0D00C94F0D00D54F0D00DD4F0D00B3
:10594C00E74F0D00F14F0D0025592D256D2D2564C8
:10595C005425483A254D3A2553257A0061736374D2
:10596C00696D6500000000000000000071520D0020
:10597C00DD520D00B5520D00D9500D0085520D00B1
:10598C00A1520D0093520D00AF520D0073520D0039
:10599C0077520D00000000000000000071530D0054
:1059AC00D9530D00AF530D00D9500D00A1530D006C
:1059BC0073530D0083530D00D3530D0093530D00FF
:1059CC006D530D000000000000000000D3540D00CA
:1059DC00C9540D00BF540D0075540D00B3540D0087
:1059EC00A7540D009B540D0093540D0089540D00C9
:1059FC007F540D00F14F0D00000000009D440D0080
:105A0C00B9490D00614D0D00054E0D00794F0D008B
:105A1C00C5500D00F1510D0021520D005D520D00CD
:045A2C00DD540D0038
:045A30000000000072
:105A3400010000001100000068590D009CE50320DE
:105A44000000000000000000000000000000000052
:105A54000000000000000000000000000000000042
:105A64000000000000000000000000000000000032
:105A74000000000000000000000000000000000022
:105A84000000000000000000000000000000000012
:105A94000000000000000000000000000000000002
:105AA400FFFFFFFF00000102030405060708090ABF
:105AB4000B0C0D0E0F101112131415161718191ABA
:085AC4001B1C1D1E1F20280001
:045ACC0078563412C2
:04000003D000401CCD
:00000001FF
